:020000040001F9
:1060000070310020C9620100E3620100E562010015
:106010000000000000000000000000000000000080
:10602000000000000000000000000000E762010026
:106030000000000000000000E9620100EB620100C6
:10604000ED620100ED620100ED620100ED62010010
:10605000ED62010000000000ED6201003D630100FF
:10606000ED620100ED620100ED620100ED620100F0
:10607000ED620100ED620100ED620100ED620100E0
:10608000ED620100ED620100ED620100ED620100D0
:10609000ED620100257101009F700100ED620100B9
:1060A000ED620100ED620100000000000000000050
:1060B00000000000000000000000000000000000E0
:1060C00000F002F800F040F80CA030C8083824189E
:1060D0002D18A246671EAB4654465D46AC4201D120
:1060E00000F032F87E460F3E0FCCB6460126334212
:1060F00000D0FB1AA246AB4633431847A815000050
:10610000C8150000103A02D378C878C1FAD85207EF
:1061100001D330C830C101D504680C60704700005D
:106120000023002400250026103A01D378C1FBD8B3
:10613000520700D330C100D50B6070471FB5C04671
:10614000C0461FBD10B510BD01F07BFA1146FFF728
:10615000F5FF00F047FA01F093FA03B4FFF7F2FFFE
:1061600003BC01F097FA0000401E00BF00BF00BF53
:1061700000BF00BF00BF00BF00BF00BF00BF00BF27
:1061800000BFF1D170470000401E00BF00BF00BF3C
:1061900000BF00BF00BF00BF00BF00BF00BF00BF07
:1061A00000BFF1D17047000070B505460C46164699
:1061B00002E00FCC0FC5103E102EFAD2082E02D3EB
:1061C00003CC03C5083E042E07D301CC01C5361FFE
:1061D00003E021782970641C6D1C761EF9D270BD15
:1061E00032483349086070473248008CC0B20128F9
:1061F00012D13048808C0007000F00280CD12D48A8
:10620000806AF0210840402806D12A48C06A084028
:10621000002801D1012070470020FCE72548008CB0
:10622000C0B201282CD12348808C0007000F002821
:1062300026D12048806AF0210840002806D11D4858
:10624000C06A0840002801D1012070471948806ABF
:10625000F0210840102806D11648C06A08400028DE
:1062600001D10120F1E71348806AF021084030286D
:1062700006D11048C06A0840002801D10120E4E797
:106280000020E2E710B5FFF7C9FF002805D00A4853
:106290000A494860C8130A498861FFF7A5FF00282A
:1062A00002D001200749886010BD00000024F400DE
:1062B00000200020C00F00F0DFFF07C000050040F5
:1062C000006C00400006004003210C4802680A43AD
:1062D00002600B4802680A4302600A4880470A4885
:1062E0000047FEE7FEE7FEE7FEE7FEE7FEE7000009
:1062F00006480749074A084B70470000240500403C
:106300005405004085620100C16001007021002039
:106310007031002070290020702900200120D04910
:10632000C8600520000448600846806801210843D1
:10633000CB4988600120CB490860704770B5CA48D6
:106340000068002821D00020C7490860C74880683D
:10635000C4B20120C6494860C648007801280ED161
:10636000C54961430846FF2101F0C5F8642148434F
:106370000546142101F0BFF8C049088004E0C04878
:106380000470052000F066F900BF70BD0120BD4912
:106390004860032107202BDF072026DF0120C003F0
:1063A000B249486007202ADF0020AF490860012079
:1063B000AE490860AE49086070470120B1494860A5
:1063C000032107202BDF072026DF01204003A749F8
:1063D000486007202ADF0020A34908600120A34964
:1063E0000860A3490860704700BFBFF34F8FA648FD
:1063F000A649C860BFF34F8F00BF00BFFEE703464A
:106400000C4622461946A248FFF7EEFF38B5042095
:10641000009000209F4908809F499E4881600E207F
:106420009C4988803C219D4801F059F800209B49F7
:1064300008600120088169469848C16095489749DD
:1064400008630021954800F03CFD044600BF234648
:10645000002B05D000BF92A2E9211846FFF7C4FF28
:1064600000BF1421914801F03AF803208F490870C9
:1064700000204860087219204002088200204882EB
:1064800038BD10B5894873DF044600BF2346002B92
:1064900005D000BF82A2FD211846FFF7A5FF00BF6F
:1064A00010BD38B500BF002350228149082000F0FC
:1064B000AEFD054600BF2B46002B06D000BF78A2DC
:1064C000FF210A311846FFF78FFF00BF00BF0020F1
:1064D00000900090684660DF044600BF2346002B12
:1064E00006D000BF6EA2FF2112311846FFF77CFFD5
:1064F00000BF38BD10B540DF044600BF2346002B67
:1065000006D000BF66A2FF211B311846FFF76CFFC3
:1065100000BF10BD704708B50420009065480078A2
:10652000401C6449087064480078401C6249087047
:106530000846007805280DD10020087002204D493A
:106540000870052000F081F8022000F05BFFFFF7E3
:1065500034FF04E0012047490870FFF717FF48485F
:1065600000784D49887145480088001208734348F7
:1065700000784873474881603C21484800F0AFFFED
:1065800001204649088169464448C1604148434961
:1065900008630021414800F094FC394800784749DD
:1065A0000872364800880012887334480078C8732F
:1065B00008BD10B50446002C13D04148414908607D
:1065C000FFF7A9FF40480078401C3F490870084683
:1065D0000078082805D1002008701021374800F005
:1065E0006AF910BD0F2000F027F80F2000F02DF8F9
:1065F000052000F021F8052000F02CF8FFF751FFEE
:1066000000221146104600F0C3FD304908600846DC
:10661000006800F061F800F01EF9FFF7F7FEFFF7E1
:106620007AFFFFF72EFF2A4A0621032000F08BFD98
:1066300000BFFFF75FFFFCE70321052212070723D6
:106640001B02D2188300D150704701218140214A9A
:1066500091607047012181401E4AD160704700005F
:10666000000501400000014000710040007500403D
:106670000070004008200020E204000006200020F6
:1066800004200020007300400400FA0500ED00E043
:10669000EFBEADDEA42000200920002068200020ED
:1066A0002E2E5C6D61696E2E630000005420002068
:1066B000B0200020052000202820002017200020E6
:1066C0003546526E00060140292000202C20002073
:1066D000B3650100000500509A49086070471CB579
:1066E000044668460471984801AB01220A210090D3
:1066F0009448006800F0C9FD1CBD70B506460C4604
:1067000015460A2000F012F98F4B224629468D4883
:10671000006800F0F7FD0A2000F003F92820FFF7D9
:1067200023FD70BD1CB504468020204369460871D6
:1067300000204871844801AB02220A210090814860
:10674000006800F0A2FD804840781CBD70B504468A
:106750000D4616460A2000F0E9F8C0202043024604
:10676000794B01217748006800F0CCFD764B2A4632
:1067700031467448006800F0C5FD0A2000F0D1F8E9
:1067800070BD7CB504460D466846047145716E487F
:1067900001AB02220A2100906A48006800F075FDF2
:1067A0007CBD10B506214220FFF7EBFF05214820F4
:1067B000FFF7E7FF08214B20FFF7E3FF21214D20E2
:1067C000FFF7DFFF62214E20FFF7DBFF76214F202E
:1067D000FFF7D7FF5B215020FFF7D3FFF8215120AF
:1067E000FFF7CFFF13215220FFF7CBFF18215820CE
:1067F000FFF7C7FF1D215920FFF7C3FF1C215A20B7
:10680000FFF7BFFFC7215B20FFF7BBFF00215C2024
:10681000FFF7B7FFB2215D20FFF7B3FFFB21602038
:10682000FFF7AFFFB6216120FFF7ABFFEA2163203E
:10683000FFF7A7FF2A216420FFF7A3FF00216520AF
:10684000FFF79FFF1F216620FFF79BFF09216E20A6
:10685000FFF797FF10BD10B50A200321C2060723DA
:106860001B02D2188300D15000BF00F05AF80B2051
:1068700000218A0005231B07072424021B1984001A
:106880001A5100BF6420FFF76FFC3020FFF727FF8D
:106890006420FFF769FCFFF784FF06210220FFF761
:1068A00070FF3720FFF71BFF3B20FFF718FF392051
:1068B000FFF715FF10BD70B504460D46A81E6070A9
:1068C0003720FFF70CFFFF202D30FFF74DFC2A4645
:1068D00021463F20FFF711FF3520FFF700FF00BFE3
:1068E0000B2000F028F80028FAD000BF0B2000F0A1
:1068F00022F80028FAD13720FFF7F1FE3B20FFF7FE
:10690000EEFE3920FFF7EBFE70BD38B504460221DC
:10691000684601700121417084700321FFF7CBFFAD
:1069200038BD01218140094A9160704701218140B1
:10693000064AD1607047014604480069C840C00754
:10694000C00F7047302000200021002000050050BB
:10695000F7B584B004460F4606980678B01C1F2889
:1069600003DC2079801C1F2802DD0C2007B0F0BD5D
:106970001F20801B801E85B20295B11C781802A9C9
:106980007DDF03900398002801D00398EEE720688C
:10699000022808D168460089A84204DC0920019039
:1069A000684605890BE0082001902079002804D072
:1069B0002079A84201DC257901E068460589681C38
:1069C000C2B23046711CCEB23A543046721CD6B2B6
:1069D0000199395406980178A81C0818C1B2069884
:1069E00001700020C2E7F8B505460C462078001D6E
:1069F0001F2801DD0C20F8BD684679DF0646002E11
:106A000001D03046F7E703212278501C2070A954AA
:106A100019212278501C2070A95420784119684609
:106A2000008800F08BFA2178401820700020E2E7FF
:106A3000F8B505460F4616461C466868002801D181
:106A40000720F8BD2078801C298840181F2801DD08
:106A50000C20F6E72878401CC1B22278501C207028
:106A6000B1542178481C207077542A8823789819CB
:106A7000696800F0D5FC2078297840182070002043
:106A8000DFE730B503461078C01C1F2801DD0C205D
:106A900030BD02241578681C10704C550A241578F6
:106AA000681C10704C551578681C10704B550020F0
:106AB000EEE7FFB587B006461D46109C0020069005
:106AC00020780590002747E0B900706841180A88CF
:106AD0006846028149884181002203A902A865DF36
:106AE00004900498002802D004980BB0F0BD6846CA
:106AF000017B099881422ED10698002801D0002000
:106B000000E00220019020786946097B4118019835
:106B100008181F2801DD0C20E7E70698002809D196
:106B20002078401C20702278511C08982170A854AD
:106B3000012006902078421903A902A865DF04907D
:106B40000498002801D00498CFE720786946097B93
:106B50004018207000BF7F1C3088B842B4DC069813
:106B6000002806D021780598401C081AC1B2059863
:106B700029540020B9E7FFB581B0074615460A9EA3
:106B8000009602223846049B0299FFF792FF0446C2
:106B9000002C02D0204605B0F0BD009610222946F8
:106BA0003846049BFFF785FF0446002C01D02046A1
:106BB000F1E70020EFE701460888062808DB08888F
:106BC0001922D201904205DD0888E14A904201D0A5
:106BD000072070474888062808DB48881922D20118
:106BE000904205DD4888DA4A904201D00720F0E75C
:106BF0000888D74A904208D04888904205D0088833
:106C00004A88904201DD0720E3E70020E1E7F8B57C
:106C100006460D4614462078801D1F2801D90C20F9
:106C2000F8BD3046FFF7C7FF0746002F01D03846B2
:106C3000F6E705212278501C2070A95412212278F1
:106C4000501C2070A95422785119308800F076F930
:106C500021784018207022785119708800F06EF960
:106C60002178401820700020DAE7F8B505460E4676
:106C700014462879801CC7B22078801CC0191F28B0
:106C800001DD0C20F8BD781CC1B22278501C2070A8
:106C9000B154FF212278501C2070B15422789119F0
:106CA000288800F04BF9217840182070A888002827
:106CB0000EDDA868002801D10720E3E7AA88237821
:106CC0009819A96800F0ACFB207829794018207049
:106CD0000020D7E7FEB507460E461446786B00281D
:106CE00001D10720FEBD0020019032E0796B0C221B
:106CF000019850430D182879801CC0B2009000986C
:106D0000401CC1B22278501C2070B1541621227848
:106D1000501C2070B15422789119288800F00EF987
:106D2000217840182070A88800280EDDA868002867
:106D300001D10720D6E7AA8823789819A96800F01E
:106D40006FFB20782979401820700198401CC0B250
:106D500001903820C15D01988142C7DC0020C1E765
:106D6000F8B504460F46164600250020307020680E
:106D7000002809D0324639462046FFF7E9FD05468E
:106D8000002D01D02846F8BD6079002808D0314692
:106D90003846FFF728FE0546002D01D02846F2E7C9
:106DA000208900280BDD33463A4601212046083071
:106DB000FFF73EFE0546002D01D02846E3E7206997
:106DC00000280BD000202169085632463946FFF7CB
:106DD00058FE0546002D01D02846D4E7A08A002899
:106DE0000CDD3B4606220221204614300096FFF7B8
:106DF000C2FE0546002D01D02846C4E7A08B00281E
:106E00000CDD3B460722032120461C300096FFF78D
:106E1000B2FE0546002D01D02846B4E7A08C00281C
:106E20000CDD3B4615221421204624300096FFF746
:106E3000A2FE0546002D01D02846A4E7E06A0028FE
:106E400009D032463946E06AFFF7E1FE0546002DDB
:106E500001D0284697E7206B002809D032463946F2
:106E6000206BFFF702FF0546002D01D028468AE778
:106E70003820005D002809DD324639462046FFF7FC
:106E800029FF0546002D01D028467CE728467AE7F1
:106E900001460889002808D0C868002805D0C868BD
:106EA000007804221040002801D1072070470020FC
:106EB000FCE701460889002801DD07207047002013
:106EC000FCE7F3B593B00D46002112911191139890
:106ED000002814D01398FFF7DBFF0446002C02D0E3
:106EE000204615B0F0BD12AA09A91398FFF738FF84
:106EF0000446002C01D02046F3E709AE00E000264E
:106F0000002D13D02846FFF7D4FF0446002C01D0F3
:106F10002046E6E711AA01A92846FFF721FF04460B
:106F2000002C01D02046DCE701AF00E0002710A8CC
:106F300003793A46017A304672DFD2E702460A7098
:106F4000FF2000021040001248700220704700002D
:106F5000FFFF000070B506460C4615462946204640
:106F6000FFF74DFA70BDF8B55A480078002800D1F7
:106F7000F8BD59480068002801D1012000E0002038
:106F8000054656480068002801D1012000E0002095
:106F9000064600BF002D14D1684651DF0446052C7B
:106FA00001D101250CE0002C06D000BF4CA26921C4
:106FB0002046FFF719FA03E0474900980968884717
:106FC00000BF002E1AD153480088009069465248ED
:106FD000006861DF0446052C01D101260DE0002C7C
:106FE00006D000BF3EA280212046FFF7FDF904E055
:106FF0004948006839490968884700BF002D02D018
:10700000002E00D000E0C5E700BF00BFB0E7FFB52D
:1070100081B00C4616461F46002C02D1072005B051
:10702000F0BD20468107890F002901D1012100E030
:107030000021002901D10720F1E7374804603548D5
:107040000680364807603649019810DF0546002D56
:1070500001D02846E3E701201E490870162026DFEC
:10706000DDE710B511DF0446002C01D0012000E05F
:10707000002018490870204610BD0146002901D1A2
:107080000E207047154801600020FAE701460029EC
:1070900001D10E207047104801600020FAE770B55A
:1070A0001E480068002811D01C480068804704462C
:1070B00000BF2546002D07D000BF09A2FF213331B4
:1070C0002846FFF791F900BF00BF01E0FFF74BFF33
:1070D00070BD0000422000204820002044200020F5
:1070E0002E2E5C2E2E5C2E2E5C2E2E5C536F757217
:1070F00063655C73645F636F6D6D6F6E5C736F6609
:10710000746465766963655F68616E646C65722E30
:1071100063000000402000203C2000203820002098
:10712000556F010010B518480078012148401649F4
:10713000087016480068002804D0084600781349F3
:107140000968884710BDF8B505460F4616460F4832
:10715000066015202ADF0446002C01D02046F8BD29
:10716000294615202BDF0446002C01D02046F6E7E7
:10717000152026DF0446002C01D02046EFE73946D3
:1071800003204CDFEBE700004C20002050200020C3
:10719000F7B506460F46002E01D1974800E0974804
:1071A0000446002E1FD10D2000F00DF90E2000F036
:1071B0000AF900210C2000F00FF90A2000F003F971
:1071C0000D2005210902611888600E2005210902A1
:1071D0006118C8600C2005210902611808610A20A5
:1071E00000F004F91EE00D2000F0EDF80E2000F094
:1071F000EAF800210C2000F0EFF81F2000F0E3F87F
:107200000D2005210902611888600E200521090260
:107210006118C8600C2005210902611808611F204F
:1072200000F0E4F8012040070521090261184862D6
:10723000002F06D0012F06D0022F06D0032F08D131
:1072400005E0002507E0022505E0042503E006250A
:1072500001E0002500BF00BF0298002806D00120F1
:107260002843052109026118486503E00520000252
:10727000201845650021FF2009300151012005211A
:107280000902611808602046FEBDFFB581B00C46BA
:1072900000270025019E00BF0120A0405849C8607A
:1072A00000BF27E00498405D052109027118C861FC
:1072B00000E07F1CFF2009308059002803D1032003
:1072C00000038742F5D303200003874205D12046FF
:1072D00000F08CF8002005B0F0BD0021FF2009303F
:1072E00081510520000230188069C1B20A984155C9
:1072F000681C85B203988542D4DB204600F076F8FE
:107300000120E8E7FFB581B00746002600243D468E
:1073100027E00398005D052109026918C86100E0B3
:10732000761CFF2009304059002803D103200003B8
:107330008642F5D303200003864205D1009800F071
:1073400055F8002005B0F0BD0021FF200930415163
:107350000520000228188069C1B204980155601CFC
:1073600084B202988442D4DB0120EBE7F7B582B007
:107370000746002400253E4620E00498405D052194
:1073800009027118C86100E0641CFF2009308059AF
:10739000002803D1032000038442F5D30320000317
:1073A000844205D1019800F021F8002005B0F0BD1D
:1073B0000021FF2009308151681C85B20398854265
:1073C000DBDB0120F2E703210522120707231B0262
:1073D000D2188300D150704710B58A0005231B07CF
:1073E000072424021B1984001A5110BD0121814079
:1073F000034A9160704700000030004000400040A8
:107400000005005001B505E00098401E00900348BB
:10741000FEF7BAFE00980028F6D108BDE703000089
:10742000F8B5042A2CD3830712D00B78491C0370BB
:10743000401C521E83070BD00B78491C0370401C64
:10744000521E830704D00B78491C0370401C521E47
:107450008B079B0F05D0C91ADF002023DE1B08C94C
:107460000AE0FEF7A1FEF8BD1D4608C9FD401C4616
:10747000B4402C4310C0121F042AF5D2F308C91AD5
:10748000521EF0D40B78491C0370401C521EEAD4E3
:107490000B78491C0370401C012AE4D40978017060
:1074A000F8BD01E004C0091F0429FBD28B0701D5F8
:1074B0000280801CC90700D00270704700290BD0E1
:1074C000C30702D00270401C491E022904D383075F
:1074D00002D50280801C891EE3E70022EEE700222D
:1074E000DFE7002203098B422CD3030A8B4211D31E
:1074F00000239C464EE003460B433CD40022430845
:107500008B4231D303098B421CD3030A8B4201D334
:1075100094463FE0C3098B4201D3CB01C01A5241CC
:1075200083098B4201D38B01C01A524143098B421C
:1075300001D34B01C01A524103098B4201D30B0105
:10754000C01A5241C3088B4201D3CB00C01A52412A
:1075500083088B4201D38B00C01A524143088B42EF
:1075600001D34B00C01A5241411A00D20146524188
:10757000104670475DE0CA0F00D04942031000D3A7
:107580004042534000229C4603098B422DD3030AFC
:107590008B4212D3FC22890112BA030A8B420CD30C
:1075A000890192118B4208D3890192118B4204D335
:1075B00089013AD0921100E08909C3098B4201D3B5
:1075C000CB01C01A524183098B4201D38B01C01AEF
:1075D000524143098B4201D34B01C01A5241030966
:1075E0008B4201D30B01C01A5241C3088B4201D315
:1075F000CB00C01A524183088B4201D38B00C01AC2
:107600005241D9D243088B4201D34B00C01A524198
:10761000411A00D20146634652415B10104601D325
:107620004042002B00D54942704763465B1000D3AF
:10763000404201B50020C046C04602BD70477047B9
:107640007047754600F022F8AE460500694653467D
:10765000C008C000854618B020B5FEF749FE60BCE2
:1076600000274908B6460026C0C5C0C5C0C5C0C56C
:10767000C0C5C0C5C0C5C0C5403D49008D467047A6
:107680000446C046C0462046FEF767FD00487047E6
:107690001021002001491820ABBEFEE726000200A1
:1076A00070470000C4760100002000205400000054
:1076B0000461010018770100542000201C11000013
:1076C000206101000024F4000000000000202020C0
:1076D00003005900000000000000007F0720202068
:1076E000030059000000000000000000000000003E
:1076F0000000000000000000C000020000000000C8
:107700000000000000000000000000000000000079
:08771000000000000000000071
:04000005000160C1D5
:00000001FF
